{
  "transactions": [
    {
      "hash": "0x01f11f874c4e43efa83f2157af4320cb96750c40af929f0c7dca6806d1db74ac",
      "transactionType": "CALL",
      "contractName": null,
      "contractAddress": "0x7de45591f0e77c73b6a4a0980b33406ffced9269",
      "function": "transfer(address,uint256)",
      "arguments": [
        "0x51e3BD4B14fc08d96f1975Ad3988782E8e654Caa",
        "5000000000000000000000000"
      ],
      "transaction": {
        "from": "0x6f7c350f4e7dfe1aae79b48cef90a56eff086f05",
        "to": "0x7de45591f0e77c73b6a4a0980b33406ffced9269",
        "gas": "0xcf50",
        "value": "0x0",
        "input": "0xa9059cbb00000000000000000000000051e3bd4b14fc08d96f1975ad3988782e8e654caa0000000000000000000000000000000000000000000422ca8b0a00a425000000",
        "nonce": "0x28",
        "chainId": "0xaa36a7"
      },
      "additionalContracts": [],
      "isFixedGasLimit": false
    },
    {
      "hash": null,
      "transactionType": "CALL",
      "contractName": null,
      "contractAddress": "0xce751e8576572ec578bec703068bcaab8ccf9a52",
      "function": "setTokenPrice(uint256)",
      "arguments": [
        "1000000000000000"
      ],
      "transaction": {
        "from": "0x6f7c350f4e7dfe1aae79b48cef90a56eff086f05",
        "to": "0xce751e8576572ec578bec703068bcaab8ccf9a52",
        "gas": "0xffc6",
        "value": "0x0",
        "input": "0x6a61e5fc00000000000000000000000000000000000000000000000000038d7ea4c68000",
        "nonce": "0x29",
        "chainId": "0xaa36a7"
      },
      "additionalContracts": [],
      "isFixedGasLimit": false
    },
    {
      "hash": null,
      "transactionType": "CALL",
      "contractName": null,
      "contractAddress": "0x70386adec48f84dc9ea825d10df7aeaa156c00d6",
      "function": "updateFeeConfig(uint256,uint256,uint256)",
      "arguments": [
        "100",
        "10000000000000000000",
        "1000000000000000000000"
      ],
      "transaction": {
        "from": "0x6f7c350f4e7dfe1aae79b48cef90a56eff086f05",
        "to": "0x70386adec48f84dc9ea825d10df7aeaa156c00d6",
        "gas": "0xb2bc",
        "value": "0x0",
        "input": "0xbf534d6300000000000000000000000000000000000000000000000000000000000000640000000000000000000000000000000000000000000000008ac7230489e8000000000000000000000000000000000000000000000000003635c9adc5dea00000",
        "nonce": "0x2a",
        "chainId": "0xaa36a7"
      },
      "additionalContracts": [],
      "isFixedGasLimit": false
    }
  ],
  "receipts": [],
  "libraries": [],
  "pending": [
    "0x01f11f874c4e43efa83f2157af4320cb96750c40af929f0c7dca6806d1db74ac"
  ],
  "returns": {},
  "timestamp": 1774815592,
  "chain": 11155111,
  "commit": "c2e89c3"
}