{
  "transactions": [
    {
      "hash": "0x0b6d3ca0dd4e001058edd8f43e9c6b8d2bab28d71bf0320c190f0a4dfd0d8bd7",
      "transactionType": "CALL",
      "contractName": null,
      "contractAddress": "0x234eda8ccb2414a71c5ee631203c961d7cec2d6d",
      "function": "transfer(address,uint256)",
      "arguments": [
        "0x51e3BD4B14fc08d96f1975Ad3988782E8e654Caa",
        "5000000000000000000000000"
      ],
      "transaction": {
        "from": "0x6f7c350f4e7dfe1aae79b48cef90a56eff086f05",
        "to": "0x234eda8ccb2414a71c5ee631203c961d7cec2d6d",
        "gas": "0x139f4",
        "value": "0x0",
        "input": "0xa9059cbb00000000000000000000000051e3bd4b14fc08d96f1975ad3988782e8e654caa0000000000000000000000000000000000000000000422ca8b0a00a425000000",
        "nonce": "0x32",
        "chainId": "0xaa36a7"
      },
      "additionalContracts": [],
      "isFixedGasLimit": false
    },
    {
      "hash": "0x75a4ef58c169dc4e24aa9bccdf90cd259c0ed73a0203f14ce06bbe7b9b568863",
      "transactionType": "CALL",
      "contractName": null,
      "contractAddress": "0x7251a1d67d6a4bde2d5c70adf121131bbbaf83a7",
      "function": "setTokenPrice(uint256)",
      "arguments": [
        "1000000000000000"
      ],
      "transaction": {
        "from": "0x6f7c350f4e7dfe1aae79b48cef90a56eff086f05",
        "to": "0x7251a1d67d6a4bde2d5c70adf121131bbbaf83a7",
        "gas": "0xffc6",
        "value": "0x0",
        "input": "0x6a61e5fc00000000000000000000000000000000000000000000000000038d7ea4c68000",
        "nonce": "0x33",
        "chainId": "0xaa36a7"
      },
      "additionalContracts": [],
      "isFixedGasLimit": false
    },
    {
      "hash": "0x49e87fb53b170298c5b2f17a8161c4652888110f4fa6424b71e8caade1f18405",
      "transactionType": "CALL",
      "contractName": null,
      "contractAddress": "0x7398a6f044df9167b0239b257eacd61e85140862",
      "function": "updateFeeConfig(uint256,uint256,uint256)",
      "arguments": [
        "100",
        "10000000000000000000",
        "1000000000000000000000"
      ],
      "transaction": {
        "from": "0x6f7c350f4e7dfe1aae79b48cef90a56eff086f05",
        "to": "0x7398a6f044df9167b0239b257eacd61e85140862",
        "gas": "0xb2bc",
        "value": "0x0",
        "input": "0xbf534d6300000000000000000000000000000000000000000000000000000000000000640000000000000000000000000000000000000000000000008ac7230489e8000000000000000000000000000000000000000000000000003635c9adc5dea00000",
        "nonce": "0x34",
        "chainId": "0xaa36a7"
      },
      "additionalContracts": [],
      "isFixedGasLimit": false
    }
  ],
  "receipts": [
    {
      "status": "0x1",
      "cumulativeGasUsed": "0x5f9027",
      "logs": [
        {
          "address": "0x234eda8ccb2414a71c5ee631203c961d7cec2d6d",
          "topics": [
            "0xddf252ad1be2c89b69c2b068fc378daa952ba7f163c4a11628f55a4df523b3ef",
            "0x0000000000000000000000006f7c350f4e7dfe1aae79b48cef90a56eff086f05",
            "0x00000000000000000000000051e3bd4b14fc08d96f1975ad3988782e8e654caa"
          ],
          "data": "0x0000000000000000000000000000000000000000000422ca8b0a00a425000000",
          "blockHash": "0xbf4c65fc6d0fe61ea3b4420673f054f507aaa2148dfd33ec70deaebbbe727d0e",
          "blockNumber": "0xa0ff2e",
          "blockTimestamp": "0x69c9f3e4",
          "transactionHash": "0x0b6d3ca0dd4e001058edd8f43e9c6b8d2bab28d71bf0320c190f0a4dfd0d8bd7",
          "transactionIndex": "0x2d",
          "logIndex": "0xa0",
          "removed": false
        }
      ],
      "logsBloom": "0x00000000000000000000000000000000000000000000000000000000000000000000200000000000000000000040010000000000000000000000000000000000000000000000000000001008000000000000000000000000000000000000000000000000000000000000000000000000000000000000000000000010000000000000000000000000000000000000000000000000000008010000000000000000000000000000040000000000000000000000000000000000000000000000000010000002000000000000000000000000000000000000000000000000004000000000000000000000000000000000000000000000000000000000000000000000",
      "type": "0x2",
      "transactionHash": "0x0b6d3ca0dd4e001058edd8f43e9c6b8d2bab28d71bf0320c190f0a4dfd0d8bd7",
      "transactionIndex": "0x2d",
      "blockHash": "0xbf4c65fc6d0fe61ea3b4420673f054f507aaa2148dfd33ec70deaebbbe727d0e",
      "blockNumber": "0xa0ff2e",
      "gasUsed": "0xe34d",
      "effectiveGasPrice": "0x111a79",
      "from": "0x6f7c350f4e7dfe1aae79b48cef90a56eff086f05",
      "to": "0x234eda8ccb2414a71c5ee631203c961d7cec2d6d",
      "contractAddress": null
    },
    {
      "status": "0x1",
      "cumulativeGasUsed": "0x87232d",
      "logs": [
        {
          "address": "0x7251a1d67d6a4bde2d5c70adf121131bbbaf83a7",
          "topics": [
            "0xd9cc159fa79112d02593601db522a6696e6c5c82d9e9ca9332f89ec824935bb0"
          ],
          "data": "0x000000000000000000000000000000000000000000000000000000000000000000000000000000000000000000000000000000000000000000038d7ea4c68000",
          "blockHash": "0x1bcc5c8fe986f14a7bca7562b917980dc13376009eaf217ec0e03ede21daff79",
          "blockNumber": "0xa0ff2f",
          "blockTimestamp": "0x69c9f3f0",
          "transactionHash": "0x75a4ef58c169dc4e24aa9bccdf90cd259c0ed73a0203f14ce06bbe7b9b568863",
          "transactionIndex": "0x40",
          "logIndex": "0xc3",
          "removed": false
        }
      ],
      "logsBloom": "0x00000000000000800000000000000000000000000000000000000000000000000000000000000000000000000000000000000000000000000000000000000000000000000000000000000020000000000000000000000000000000000000000000000000000000010000000000000000000000000000000000000000000000000000000000000000000000000000000000000000000000000000400000000000000000000000000000000000000000000000000000000000000000000000001000000000000000000000000000200000000000000000000000000000000000000000000000000000000000000000000000000000000000000000000000000000",
      "type": "0x2",
      "transactionHash": "0x75a4ef58c169dc4e24aa9bccdf90cd259c0ed73a0203f14ce06bbe7b9b568863",
      "transactionIndex": "0x40",
      "blockHash": "0x1bcc5c8fe986f14a7bca7562b917980dc13376009eaf217ec0e03ede21daff79",
      "blockNumber": "0xa0ff2f",
      "gasUsed": "0xb92e",
      "effectiveGasPrice": "0x10f4da",
      "from": "0x6f7c350f4e7dfe1aae79b48cef90a56eff086f05",
      "to": "0x7251a1d67d6a4bde2d5c70adf121131bbbaf83a7",
      "contractAddress": null
    },
    {
      "status": "0x1",
      "cumulativeGasUsed": "0x182a55b",
      "logs": [
        {
          "address": "0x7398a6f044df9167b0239b257eacd61e85140862",
          "topics": [
            "0x7db0317b48d5cfa60fe5406abab969900e8dfb1ecbe177a05af0595780cb85c7"
          ],
          "data": "0x00000000000000000000000000000000000000000000000000000000000000640000000000000000000000000000000000000000000000008ac7230489e8000000000000000000000000000000000000000000000000003635c9adc5dea00000",
          "blockHash": "0xad249a04a87435953dc305ddce3b91eaf19e98a52bb6f2f314e8a4f9c62e2ef0",
          "blockNumber": "0xa0ff30",
          "blockTimestamp": "0x69c9f3fc",
          "transactionHash": "0x49e87fb53b170298c5b2f17a8161c4652888110f4fa6424b71e8caade1f18405",
          "transactionIndex": "0x48",
          "logIndex": "0x145",
          "removed": false
        }
      ],
      "logsBloom": "0x00000000040000000000000000000000000004000000000000000000000000000000000000000000000000000000000000000000000000000000000000000000000000000000000000000000100000000000000000000000000000000000000000000000000000000000000000000008000000000000000000000000000000000000000000000000000000000010000000000000000000000000000000000000000000000000000000000000000000000200000000000000000000000000000000000000000000000000000000000000000000000000000000000000000000000000000000000000000000000000000000000000000000000000000000000000",
      "type": "0x2",
      "transactionHash": "0x49e87fb53b170298c5b2f17a8161c4652888110f4fa6424b71e8caade1f18405",
      "transactionIndex": "0x48",
      "blockHash": "0xad249a04a87435953dc305ddce3b91eaf19e98a52bb6f2f314e8a4f9c62e2ef0",
      "blockNumber": "0xa0ff30",
      "gasUsed": "0x8167",
      "effectiveGasPrice": "0x111350",
      "from": "0x6f7c350f4e7dfe1aae79b48cef90a56eff086f05",
      "to": "0x7398a6f044df9167b0239b257eacd61e85140862",
      "contractAddress": null
    }
  ],
  "libraries": [],
  "pending": [],
  "returns": {},
  "timestamp": 1774842878,
  "chain": 11155111,
  "commit": "c2e89c3"
}