{
  "transactions": [
    {
      "hash": "0xba00704e04e376a81f9b7d459b92c7149d83aca9a81e31a86225f34bc6cceebc",
      "transactionType": "CALL",
      "contractName": null,
      "contractAddress": "0x234eda8ccb2414a71c5ee631203c961d7cec2d6d",
      "function": "approve(address,uint256)",
      "arguments": [
        "0x7251A1d67D6A4bDe2d5C70adF121131BBBaf83a7",
        "5000000000000000000000000"
      ],
      "transaction": {
        "from": "0x51e3bd4b14fc08d96f1975ad3988782e8e654caa",
        "to": "0x234eda8ccb2414a71c5ee631203c961d7cec2d6d",
        "gas": "0xf865",
        "value": "0x0",
        "input": "0x095ea7b30000000000000000000000007251a1d67d6a4bde2d5c70adf121131bbbaf83a70000000000000000000000000000000000000000000422ca8b0a00a425000000",
        "nonce": "0xe",
        "chainId": "0xaa36a7"
      },
      "additionalContracts": [],
      "isFixedGasLimit": false
    }
  ],
  "receipts": [
    {
      "status": "0x1",
      "cumulativeGasUsed": "0x141c554",
      "logs": [
        {
          "address": "0x234eda8ccb2414a71c5ee631203c961d7cec2d6d",
          "topics": [
            "0x8c5be1e5ebec7d5bd14f71427d1e84f3dd0314c0f7b2291e5b200ac8c7c3b925",
            "0x00000000000000000000000051e3bd4b14fc08d96f1975ad3988782e8e654caa",
            "0x0000000000000000000000007251a1d67d6a4bde2d5c70adf121131bbbaf83a7"
          ],
          "data": "0x0000000000000000000000000000000000000000000422ca8b0a00a425000000",
          "blockHash": "0x685f39b660559d9e61362e9eeb39a8f814e5360c17028e78c386ddaf8d95b409",
          "blockNumber": "0xa0ff7c",
          "blockTimestamp": "0x69c9f78c",
          "transactionHash": "0xba00704e04e376a81f9b7d459b92c7149d83aca9a81e31a86225f34bc6cceebc",
          "transactionIndex": "0x8d",
          "logIndex": "0x317",
          "removed": false
        }
      ],
      "logsBloom": "0x00000000000000000000000000000000000000000000000000000000000000000000200000000000000000000040000000000000000000000000000000200000000000000000000000001000000000000002000000000000000000000000000000000000000000000000000000000000000000000000000000000000000000000000000000000000000000000000000000000000000000010000000000000000020000000000040000000000000000000000000000000000000004000000000010000000000000000000000000000000000000000000000000000000000000000010000000000000000000000000000000000000000000000000000000000000",
      "type": "0x2",
      "transactionHash": "0xba00704e04e376a81f9b7d459b92c7149d83aca9a81e31a86225f34bc6cceebc",
      "transactionIndex": "0x8d",
      "blockHash": "0x685f39b660559d9e61362e9eeb39a8f814e5360c17028e78c386ddaf8d95b409",
      "blockNumber": "0xa0ff7c",
      "gasUsed": "0xb3d6",
      "effectiveGasPrice": "0xd012",
      "from": "0x51e3bd4b14fc08d96f1975ad3988782e8e654caa",
      "to": "0x234eda8ccb2414a71c5ee631203c961d7cec2d6d",
      "contractAddress": null
    }
  ],
  "libraries": [],
  "pending": [],
  "returns": {},
  "timestamp": 1774843789,
  "chain": 11155111,
  "commit": "c2e89c3"
}