{
  "transactions": [
    {
      "hash": "0x44f6048a4ddf770af32b1e1d54063cdcb2469bdd4cb640b9406eda23558d9b15",
      "transactionType": "CALL",
      "contractName": null,
      "contractAddress": "0x234eda8ccb2414a71c5ee631203c961d7cec2d6d",
      "function": "approve(address,uint256)",
      "arguments": [
        "0x7251A1d67D6A4bDe2d5C70adF121131BBBaf83a7",
        "5000000000000000000000000"
      ],
      "transaction": {
        "from": "0x51e3bd4b14fc08d96f1975ad3988782e8e654caa",
        "to": "0x234eda8ccb2414a71c5ee631203c961d7cec2d6d",
        "gas": "0xa551",
        "value": "0x0",
        "input": "0x095ea7b30000000000000000000000007251a1d67d6a4bde2d5c70adf121131bbbaf83a70000000000000000000000000000000000000000000422ca8b0a00a425000000",
        "nonce": "0xf",
        "chainId": "0xaa36a7"
      },
      "additionalContracts": [],
      "isFixedGasLimit": false
    }
  ],
  "receipts": [
    {
      "status": "0x1",
      "cumulativeGasUsed": "0xb9732c",
      "logs": [
        {
          "address": "0x234eda8ccb2414a71c5ee631203c961d7cec2d6d",
          "topics": [
            "0x8c5be1e5ebec7d5bd14f71427d1e84f3dd0314c0f7b2291e5b200ac8c7c3b925",
            "0x00000000000000000000000051e3bd4b14fc08d96f1975ad3988782e8e654caa",
            "0x0000000000000000000000007251a1d67d6a4bde2d5c70adf121131bbbaf83a7"
          ],
          "data": "0x0000000000000000000000000000000000000000000422ca8b0a00a425000000",
          "blockHash": "0x9bebd5ee502f9b50e2121f30d44785038baa6c63b37ff6b35dc1d3ab80be0e91",
          "blockNumber": "0xa1119e",
          "blockTimestamp": "0x69cad8bc",
          "transactionHash": "0x44f6048a4ddf770af32b1e1d54063cdcb2469bdd4cb640b9406eda23558d9b15",
          "transactionIndex": "0x55",
          "logIndex": "0x1c9",
          "removed": false
        }
      ],
      "logsBloom": "0x00000000000000000000000000000000000000000000000000000000000000000000200000000000000000000040000000000000000000000000000000200000000000000000000000001000000000000002000000000000000000000000000000000000000000000000000000000000000000000000000000000000000000000000000000000000000000000000000000000000000000010000000000000000020000000000040000000000000000000000000000000000000004000000000010000000000000000000000000000000000000000000000000000000000000000010000000000000000000000000000000000000000000000000000000000000",
      "type": "0x2",
      "transactionHash": "0x44f6048a4ddf770af32b1e1d54063cdcb2469bdd4cb640b9406eda23558d9b15",
      "transactionIndex": "0x55",
      "blockHash": "0x9bebd5ee502f9b50e2121f30d44785038baa6c63b37ff6b35dc1d3ab80be0e91",
      "blockNumber": "0xa1119e",
      "gasUsed": "0x710a",
      "effectiveGasPrice": "0xf424a",
      "from": "0x51e3bd4b14fc08d96f1975ad3988782e8e654caa",
      "to": "0x234eda8ccb2414a71c5ee631203c961d7cec2d6d",
      "contractAddress": null
    }
  ],
  "libraries": [],
  "pending": [],
  "returns": {},
  "timestamp": 1774901437,
  "chain": 11155111,
  "commit": "c2e89c3"
}